:020000040800F2
:100000001007002029020008390E00089309000893
:10001000350E00081D050008AD170008000000009F
:1000200000000000000000000000000005150008AE
:100030001908000800000000E1120008F51500088A
:10004000430200084302000843020008430200087C
:10005000430200084302000843020008430200086C
:10006000430200084302000843020008430200085C
:10007000430200084302000843020008430200084C
:10008000430200084302000843020008430200083C
:10009000430200084302000843020008430200082C
:1000A000430200084302000843020008430200081C
:1000B000430200084302000843020008430200080C
:1000C00043020008430200084302000843020008FC
:1000D00043020008430200084302000843020008EC
:1000E00043020008430200084302000843020008DC
:1000F00043020008430200084302000843020008CC
:1001000043020008430200084302000843020008BB
:1001100043020008430200084302000843020008AB
:1001200021050008430200084302000843020008BA
:10013000430200084302000843020008430200088B
:10014000430200084302000843020008430200087B
:10015000430200084302000843020008430200086B
:10016000430200084302000843020008430200085B
:10017000430200084302000843020008430200084B
:10018000430200084302000800F002F800F03CF8C7
:100190000AA090E8000C82448344AAF10107DA45E2
:1001A00001D100F031F8AFF2090EBAE80F0013F0F8
:1001B000010F18BFFB1A43F001031847202A000063
:1001C000402A0000103A24BF78C878C1FAD85207F4
:1001D00024BF30C830C144BF04680C6070470000C1
:1001E0000023002400250026103A28BF78C1FBD840
:1001F000520728BF30C148BF0B6070471FB502F0DF
:10020000D6F81FBD10B510BD00F031F81146FFF74C
:10021000F5FF01F049FC00F04FF803B4FFF7F2FFDF
:1002200003BC00F057F80000094880470948004720
:10023000FEE7FEE7FEE7FEE7FEE7FEE7FEE7FEE796
:10024000FEE7FEE704480549054A064B70470000F3
:10025000F91500088901000810010020100700208E
:100260001003002010030020704770477047754648
:1002700000F02CF8AE4605006946534620F0070012
:10028000854618B020B5FFF7DDFFBDE820404FF0F0
:1002900000064FF000074FF000084FF0000B21F070
:1002A0000701AC46ACE8C009ACE8C009ACE8C0093D
:1002B000ACE8C0098D46704710B50446AFF3008026
:1002C0002046BDE81040FFF7A8BF00000048704777
:1002D000B000002001491820ABBEFEE72600020056
:1002E000704721B1826842F00102826003E08268B7
:1002F00022F00102826070470021084A1168084A12
:100300001140D0E900231A4383681A43C3681A4393
:100310001143044AC2F8041370470000042301404B
:10032000E030FCFF0020014021B1826842F480727D
:10033000826003E0826822F480728260704721B19B
:10034000826842F40072826003E0826822F40072E4
:100350008260704730B50246002000235068104C80
:1003600020400D790C6844EA0524204350609068D1
:100370000C4C2040D1E903542C438D682C434D791B
:1003800044EA450420439060D06A20F470000C7D5C
:10039000641EE4B2234340EA0350D06230BD000043
:1003A000FFFEFFFCFDF7FFC0F0B504460D46002040
:1003B0000021092D11DDE068A5F10A0606EB4607CC
:1003C000072606FA07F18843A5F10A0606EB46065A
:1003D00003FA06F10843E0600CE0206905EB4507ED
:1003E000072606FA07F1884305EB450603FA06F1EE
:1003F00008432061072A0FDA606B561E06EB86075A
:100400001F2606FA07F18843561E06EB860605FAF4
:1004100006F10843606322E00D2A0FDA206BD61F35
:1004200006EB86071F2606FA07F18843D61F06EB60
:10043000860605FA06F10843206310E0E06AA2F19F
:100440000D0606EB86071F2606FA07F18843A2F180
:100450000D0606EB860605FA06F10843E062F0BDDC
:10046000816841F0804181607047000000B58DB027
:100470000121084600F092FF0121080200F0AEFFC2
:100480000121080200F0BAFF00214FF4807000F053
:10049000B5FF03208DF8300020200B9000208DF850
:1004A00033000BA91B4800F009FA4FF48040099073
:1004B000002007904FF4803008904FF4A0600A901D
:1004C00007A8FFF719FF01208DF80900002005900B
:1004D0000490039001208DF81800002001908DF801
:1004E000080001A90C48FFF735FF0223012205216E
:1004F0000948FFF759FF01210748FFF7F2FE0121E4
:100500000548FFF711FF01210348FFF718FF0DB061
:1005100000BD0000000002400020014000BFFEE7D7
:1005200070B500250C490D4800F0FAF8012812D1E9
:1005300009490A4800F018F8002405E0084830F896
:1005400014000544601CC4B2142CF7DB1420B5FB66
:10055000F0F00449088070BD208000101064024053
:1005600038000020140000200246094B9A4201D2B4
:10057000084801E00648103801F000531BB1064B53
:100580000B40C36002E0044B0B40836070470000E7
:1005900010640240006002407D0F7D0F21B10268AF
:1005A00042F00102026003E0026822F001020260F0
:1005B00070470000016821F0010101600021016025
:1005C00041608160C1600161212141614A498842E5
:1005D00004D13D21484A103A91608CE046491831D7
:1005E000884205D14FF47461434A103A916082E029
:1005F00041493031884205D14FF474113E4A103AD6
:10060000916078E03C494831884205D14FF07461EF
:10061000394A103A91606EE037496031884204D11E
:100620003649354A103AD16065E03349783188421D
:1006300004D13349304A103AD1605CE02E49903100
:10064000884204D12F492C4A103AD16053E02A49FC
:10065000A831884205D14FF03D51274A103AD16068
:1006600049E02949884204D13D21274A083A1160CE
:1006700041E025491831884205D14FF47461224A7E
:10068000083A116037E020493031884205D14FF4F3
:1006900074111D4A083A11602DE01B494831884207
:1006A00005D14FF07461184A083A116023E01649E9
:1006B0006031884204D11149134A121F11601AE0B7
:1006C00011497831884204D10D490F4A121F116037
:1006D00011E00D499031884204D10A490A4A121F9B
:1006E000116008E00849A831884204D14FF03D511B
:1006F000054A121F11607047106002403D00002043
:10070000400F002000003D20106402400146002000
:100710000A6802F001020AB1012000E000207047DF
:1007200070B50246002000240025124EB24201D2CC
:10073000114B01E00F4B103B104E0E4036B11E2600
:1007400006EAD124166806EA040502E0566906F0B6
:10075000800501F000560EB15C6800E01C68084E90
:10076000344004EA010616B10DB1012000E000207A
:1007700070BD000010640240006002403C0F3C0F5E
:100780007D0F7D0F10B501F080034BB122B143699D
:1007900043F08003436103E0436923F08003436136
:1007A00080290BD02AB1036801F01E0423430360A3
:1007B00004E0036801F01E04A343036010BD0000C1
:1007C00010B500220268134B1A40CC680B68234313
:1007D0004C6923438C692343CC6923430C6A23432C
:1007E0004C6A23438C6A23434C6B23438C6B234317
:1007F0001A430260426922F00702D1E90B34234315
:100800001A4342610B6943604B6883608B68C36025
:1008100010BD00003F801CF070470000F0B591B0A3
:1008200004460D4616461F460121880500F0B6FD18
:100830002148FFF7BFFE0295069400200D9001208D
:100840000E90002005904FF480700B904FF44030D4
:100850000C90049603974FF400500A908010099072
:1008600000200F9010904FF48060089000200790B7
:1008700002A91148FFF7A4FF00BF0F48FFF746FF8A
:100880000128FAD0012210210B48FFF77BFF382006
:100890008DF8040001208DF8070000208DF8050078
:1008A0008DF8060001A800F0C9FA01210248FFF7FF
:1008B00075FE11B0F0BD000010640240F0B50A46AC
:1008C00000210023002400BF3DE0012505FA01F3CB
:1008D000156805EA03049C4234D105684F000326DD
:1008E000BE40B543056015794E00B54006683543F6
:1008F00005601579012D02D01579022D16D1856874
:100900004F000326BE40B543856055794E00B54083
:10091000866835438560456801268E40B54345604D
:10092000456896798E40B6B235434560C5684F003C
:100930000326BE40B543C560D5794E00B540C668B4
:100940003543C560491C1029BFD3F0BDF0B5002365
:1009500000244D07ED0E02FA05F3CE1000F120053C
:1009600055F826504E07F70E0F26BE40B543CF1060
:1009700000F1200646F82750CE1000F1200555F86A
:10098000265045EA0304CE1000F1200545F8264024
:10099000F0BD00BFFEE700001CB50121052000F0FE
:1009A000FDFC01208DF8040000208DF806004FF4B6
:1009B0008070009001208DF8070003208DF805005D
:1009C00069460748FFF77AFF69460648FFF776FF52
:1009D0000120054908600549C1F8A4021CBD0000BA
:1009E0000000024000080240A002404200004142D4
:1009F00070B504461748006820F440201549086087
:100A00000846006840F48020086000201249086011
:100A100000251CE0E00918B101201049086002E03F
:100A200000200E4908606006040E052000F01AFF41
:100A3000012009490860052000F014FF0020084942
:100A4000C1F8A002052000F00DFF681CC5B2082DFA
:100A5000E0DB70BD00080240A0024042A402414217
:100A60000000404210B50F48006820F440200D49B6
:100A700008600846006840F48020086001200A49A8
:100A800008600A49C1F8A002052000F0EBFE002032
:100A900005490860052000F0E5FE00200349C1F883
:100AA000A00210BD00080240A402414200004042E2
:100AB00010B50F48006820F440200D490860084632
:100AC000006840F48020086000200A4908600A4954
:100AD000C1F8A402052000F0C5FE01200549086008
:100AE0000549C1F8A402052000F0BCFE10BD0000BD
:100AF00000080240A00240420000414210B500241C
:100B00001348006820F44020114908600846006836
:100B1000086001200F490860022000F0A3FE0120B8
:100B20000D49C1F8A002022000F09CFE07E0601C05
:100B3000C4B2FA2C03DDFFF7BBFF012010BD05484E
:100B4000803800680028F2D10449086000BFF5E74A
:100B500000080240A402414200004042A00240427C
:100B600010B501213A2000F019FC0120104908714C
:100B7000C00308600220C8710020887103204871FA
:100B80000C48FFF79BFE4FF44240094908600A48B1
:100B9000FFF794FE4FF48070054908600748FFF79F
:100BA0008DFE1520024908600548FFF787FE10BD3D
:100BB0002C00002000040240000C02400010024003
:100BC0000014024010B50446A01E0F2840D2DFE8F2
:100BD00000F0080C0F12161A1E2125292D3034386A
:100BE0003C00002000F04CFF32E000F0C1FE2FE09E
:100BF00000F0C8FE2CE0012000F042FF28E00220B7
:100C000000F03EFF24E0032000F03AFF20E000F077
:100C100027FF1DE0042000F033FF19E0052000F05D
:100C20002FFF15E0062000F02BFF11E000F058FE2A
:100C30000EE0072000F024FF0AE0082000F020FF6B
:100C400006E0092000F01CFF02E000F06DFE00BF8E
:100C500000BF10BD70B50024002501206A4908714D
:100C6000032048714FF4004008606848FFF726FEF3
:100C70001520654908606648FFF720FE002062499C
:100C800008714FF4807008606248FFF717FE4FF458
:100C900042405D4908606048FFF710FE01205F494F
:100CA00008605F49C1F880025E4908605C49C1F88C
:100CB00090025D4800685D49D1F8381200EB4101AF
:100CC0005A48D0F83C0201EB80015948D0F8200284
:100CD00001EBC000C5B2002D71D0052000F098FDD9
:100CE000514800685149D1F8381200EB41014F4892
:100CF000D0F83C0201EB80014D48D0F8200201EB16
:100D0000C000C5B2002D7DD0012D06D0022D06D029
:100D1000042D06D0082D08D105E0012405E00224A9
:100D200003E0032401E0042400BF00BF0020364993
:100D300008714FF4004008603448FFF7BFFD1520EC
:100D4000314908603248FFF7B9FD01202E4908718A
:100D500000020860032048712E48FFF7AFFD4FF4F2
:100D60004240294908602C48FFF7A8FD01202E4980
:100D7000803108602D49C1F8B8022B4998310860CC
:100D80002B49C1F8A0022548803800682449D1F8D1
:100D9000001200EB41012248D0F8080201EB80016B
:100DA0001F48D0F8100201EBC000C5B2012D07D0DA
:100DB000022D07D0042D08D0082D0ED109E021E026
:100DC000E4B20AE0201DC4B207E004F10800C4B296
:100DD00003E004F10C00C4B200BF00BF00BF0F4825
:100DE000803800680E49D1F8001208430C49D1F848
:100DF000081208430A49D1F8101208430028EED11E
:100E0000204670BD0020FCE72C00002000040240BA
:100E10000014024000100240000C0240BC8240421C
:100E20000080424288824242248241420080414204
:100E30000000424200BFFEE77047000070B500218D
:100E400000230F22C4781CB3174C246804F4E06418
:100E5000C4F5E064C4F30721C1F10404E3B20A411C
:100E600044789C40E1B28478144021430C07210E61
:100E70000E4C05786155047804F01F050124AC4040
:100E800005786D11AD0005F1E025C5F8004109E0D8
:100E9000047804F01F050124AC40054D0678761156
:100EA00045F8264070BD00000CED00E000E400E0D5
:100EB00080E100E002490143024A116070470000EE
:100EC0000000FA050CED00E070B5002419E004F113
:100ED000B001C8B2002100F058F90021084600F026
:100EE00054F90021102000F050F9002505E00121FF
:100EF000002000F04AF9681CC5B2802DF7DB601CA9
:100F0000C4B2082CE3DB70BD10B5FFF745FD4FF40C
:100F1000FA7000F07DFC0021AE2000F036F90021CF
:100F2000084600F032F90021102000F02EF90021CF
:100F3000402000F02AF90021812000F026F900214C
:100F4000CF2000F022F90021A12000F01EF900219D
:100F5000C82000F01AF90021A62000F016F900219F
:100F6000A82000F012F900213F2000F00EF9002126
:100F7000D32000F00AF90021084600F006F900210C
:100F8000D52000F002F90021802000F0FEF80021B9
:100F9000D92000F0FAF80021F12000F0F6F8002145
:100FA000DA2000F0F2F80021122000F0EEF8002123
:100FB000DB2000F0EAF80021402000F0E6F80021F4
:100FC000202000F0E2F80021022000F0DEF80021ED
:100FD0008D2000F0DAF80021142000F0D6F800216E
:100FE000A42000F0D2F80021A62000F0CEF80021C5
:100FF000AF2000F0CAF810BD70B504460D4605F1EB
:10100000B001C8B2002100F0C0F8102141EA14106C
:10101000002100F0BAF804F00F00002100F0B5F84C
:1010200070BD00002DE9F04707460E4690469946F0
:1010300000250024A8F12000C5B27F2F02DD002783
:10104000B01CC6B2B9F1100F24D131463846FFF7B3
:10105000D3FF002408E004EB0511194A505C01217C
:1010600000F093F8601CC4B2082CF4DB701CC1B211
:101070003846FFF7C1FF002409E004EB05110831F1
:101080000F4A505C012100F080F8601CC4B2082CAB
:10109000F3DB12E031463846FFF7AEFF00240AE0EA
:1010A00005EB4501074A02EB4101085D012100F013
:1010B0006CF8601CC4B2062CF2DBBDE8F0870000BF
:1010C000EA250008C22300082DE9FF5F0746914684
:1010D0001E460E9D4FF0000A002435E0301B401ED6
:1010E000C1B20A2000F0DEFDB9FBF0F00A21B0FB2E
:1010F000F1F201FB1208BAF1000F14D1701EA042E8
:1011000011DDB8F1000F0CD1AB4605EBDB714910D6
:1011100001FB0471C8B22B4620220199FFF782FF20
:1011200010E04FF0010AAB4605EBDB71491001FB03
:101130000471C8B208F13001CAB22B460199FFF719
:1011400071FF00BF601CC4B2B442C7DBBDE8FF9FA3
:101150002DE9F04104460F461546984600260FE05B
:10116000AA5D434639462046FFF75CFF04F10800BC
:10117000C4B2782C02DD0024B81CC7B2701CC6B201
:10118000A85D0028ECD1BDE8F08170B505460C469D
:101190001CB1284600F025FB02E0284600F008FBC1
:1011A00070BD000070B52DED108B45484068444976
:1011B00088600846006848604248D0ED000A42480E
:1011C000008800EE100AB8EE400A30EEC00ABDEE0C
:1011D000C00A084680ED000A00684968084438499A
:1011E0008968441836490968354A9268881A00EBBC
:1011F000D071491000EE101AB8EEC00A10EE105A65
:10120000284601F063F841EC1B0B9FED300B53ECCB
:10121000102B00F073FE41EC190B204600F057FE36
:1012200041EC1D0B9FED290B53EC102B00F066FEDB
:1012300041EC1B0B2249086800F049FE41EC1F0BF2
:101240009FED240B53EC102B00F058FE41EC1D0BCE
:101250002248006800F03BFE41EC1E0B53EC1D2BB6
:1012600000F05EFD41EC1C0B53EC1B2B00F058FD15
:1012700041EC1A0B53EC192B00F052FD41EC180B0A
:1012800000F0F6FD1549086008460068B0F57A7F61
:1012900001DD012000E000201049096840EAD1701A
:1012A00020B14FF4FA700D49086000240B48016822
:1012B0004FF0804000F035FABDEC108B70BD00009F
:1012C0008800002008000020140000209A999999B5
:1012D0009999A93F9A9999999999B93F180000202D
:1012E0007047000030B58BB004460D46012108461A
:1012F00000F054F80121084600F060F802208DF853
:10130000280000208DF82A000820099002208DF87E
:101310002B0003208DF8290009A91F48FFF7CEFAFA
:10132000012203211C48FFF711FB0020ADF820002B
:10133000ADF81A000795ADF818408DF8220006A9FF
:101340004FF0804000F0F0F90020ADF8140060206C
:10135000ADF804000020ADF81600ADF81200ADF8AD
:101360001000ADF808000120ADF806000020039041
:1013700001A94FF0804000F08BF90121880700F0AF
:10138000C3F90121880700F06BF90121880700F0FB
:1013900073F90BB030BD00000000024029B1064ACD
:1013A00012680243044B1A6004E0034A1268824345
:1013B000014B1A60704700003038024029B1064ADC
:1013C00012680243044B1A6004E0034A1268824325
:1013D000014B1A60704700004038024029B1064AAC
:1013E00012680243044B1A6004E0034A1268824305
:1013F000014B1A60704700004438024029B1064A88
:1014000012680243044B1A6004E0034A12688243E4
:10141000014B1A607047000024380240F0B50021EB
:1014200000220024022500260223324F3F6807F0E5
:101430000C0121B1042905D0082937D105E02E4F30
:10144000076036E02D4F076033E02A4F3F1F3F68AB
:10145000C7F38056274F3F1F3F6807F03F036EB129
:10146000264FB7FBF3F7DFF88CC0ACF1040CDCF8C7
:1014700000C0CCF3881C07FB0CF40CE01E4FB7FB3C
:10148000F3F7DFF870C0ACF1040CDCF800C0CCF36B
:10149000881C07FB0CF4174F3F1F3F68C7F3014739
:1014A0007F1C7D00B4FBF5F7076002E0124F076078
:1014B00000BF00BF0F4F3F6807F0F0010909104F50
:1014C0007A5C0768D74047600A4F3F6807F4E051ED
:1014D000890A0B4F7A5C4768D7408760054F3F68A1
:1014E00007F46041490B064F7A5C4768D740C760F4
:1014F000F0BD0000083802400024F40000127A0019
:101500001C000020704700000CB5002001900090E6
:101510003448006840F480303249086000BF3148E8
:10152000006800F4003000900198401C0190009881
:1015300018B90198B0F5A04FF1D12A48006800F41D
:10154000003010B10120009001E0002000900098D0
:10155000012846D123484030006840F0805021499E
:10156000403108602048006840F440401E4908604F
:101570001C48083000681B490831086008460068AC
:1015800040F4004008600846006840F4A05008603D
:101590001648091F0860081F006840F08070091F86
:1015A000086000BF0F48006800F000700028F9D004
:1015B00040F205700E4908600A480830006820F0C3
:1015C00003000849083108600846006840F002003E
:1015D000086000BF03480830006800F00C000828CD
:1015E000F8D10CBD0038024000700040085440079C
:1015F000003C02407047000010B51548006840F4F8
:101600007000134908601348006840F00100114958
:10161000086000200F49083108600E4800680E4934
:1016200008400C4908600D48091D0860081F006843
:1016300020F48020091F0860002006490C31086052
:10164000FFF762FF4FF0006001498039086010BD6C
:1016500088ED00E000380240FFFFF6FE1030002465
:1016600021B1028842F08002028004E002884FF635
:101670007F731A400280704721B1028842F0010254
:10168000028004E002884FF6FE731A400280704721
:1016900070B5002200230024058C4EF6FF763540FD
:1016A0000584038C8488828B48F6FF752A404FF6A8
:1016B000FF452A400D884FF6FF7606EA05252A43A6
:1016C0004DF6FF752B408D8906EA05352B434D8875
:1016D00006EA05352B430A4DA84202D0094DA8421F
:1016E00008D14BF6FF752C400D8A4FF6FF7606EABF
:1016F00085152C43848082838D680564038470BDC6
:1017000000000140000401400A460021818B4FF295
:10171000FF7319404FF6FF7303EA022319438183D5
:10172000704701647047000000220288184B9842FD
:101730000ED0184B98420BD0B0F1804F08D0164B0A
:10174000984205D0154B984202D0154B984204D1CF
:101750004FF68F731A404B881A43124B984207D0AA
:10176000114B984204D04FF6FF431A400B891A439D
:1017700002804B68C3620B880385054B984202D0F8
:10178000044B984201D18B7A0386012383827047F0
:101790000000014000040140000400400008004037
:1017A000000C0040001000400014004000BFFEE7A5
:1017B00010B50446FFF756F97820FFF719F9FFF73F
:1017C0009DF908B100BFFEE70020FFF711F9FFF710
:1017D00095F92046FFF70CF9FFF790F9FFF768F944
:1017E00010BD10B50446FFF73DF97820FFF700F96A
:1017F000FFF784F94020FFF7FBF8FFF77FF9204659
:10180000FFF7F6F8FFF77AF9FFF752F910BD00007D
:1018100070B504461248FFF701FE11480068C5087C
:101820004FF47A70B5FBF0F606FB04F04FF0E021C0
:101830004861002088610846006940F001000861A5
:1018400000BF4FF0E0200069C00B0028F9D04FF036
:10185000E0200069C0F30E004FF0E021086170BD88
:101860009400002070B504461248FFF7D7FD1148D8
:101870000068C5081048B5FBF0F6601E70434FF0D5
:10188000E0214861002088610846006940F00100BD
:10189000086100BF4FF0E0200069C00B0028F9D0BC
:1018A0004FF0E0200069C0F30E004FF0E021086126
:1018B00070BD00009400002040420F0000EE900A2E
:1018C000F8EE600AB0EE600A07E0F2EE040A80EE7D
:1018D000201AB0EE410A4A1ED1B20029F5D1704754
:1018E00010B52DED048B0C48007888B90B480068C2
:1018F00000F0ECFC41EC190B9FED090B53EC102BA5
:1019000000F0FAFB41EC180B00F0D8F9034908602D
:10191000BDEC048B10BD000034000020040000204A
:101920009A9999999999B93F10B52DED048B0C4866
:10193000007888B90B48006800F0C8FC41EC190B2E
:101940009FED090B53EC102B00F0EAF941EC180B5A
:1019500000F0B4F903490860BDEC048B10BD000031
:1019600034000020040000209A9999999999B93F70
:1019700002480078024908707047000035000020D6
:101980003600002000B53048007801285AD19FED7C
:101990002F0AF0EE401A2E480078C8B9002312E052
:1019A0002C4A1278D21A521ED1B22B4AD05C00F0C7
:1019B0006FF900EE100AB8EE400A30EE210AF0EEA0
:1019C000401A581CC3B2234800788342E8DB2EE05B
:1019D000002312E01E4A1278D21A521ED1B21E4AB9
:1019E000D05C00F055F900EE100AB8EE400A30EE77
:1019F000210AF0EE401A581CC3B215480078834201
:101A0000E8DB134803780EE0114A12789A1A521C48
:101A1000D1B2114AD05CFFF751FF30EE210AF0EE4F
:101A2000401A581CC3B20B4800788342ECDB0B48C9
:101A3000C0ED001A002004490870064908700449E6
:101A4000087000BF00BD000034000020000000004E
:101A50003600002035000020A400002000000020F7
:101A60000120044908709FED040A044880ED000A33
:101A70007047000034000020000000000400002037
:101A800006490978012908D10549064A127888547F
:101A900004490978491C034A11707047340000203A
:101AA000A4000020350000202DED028B82B04FF401
:101AB000A060FFF7FFF9FFF753F8FFF725FAFFF7EC
:101AC00003FA40F2E7310020FFF70CFCFEF7CEFCF2
:101AD0005A4B5B4A00211420FEF7A0FE57484C38B1
:101AE000FEF7BEFC102357A200210846FFF730FB8B
:101AF000102356A202210020FFF72AFB102355A233
:101B000004210020FFF724FB102356A20621002009
:101B1000FFF71EFB90E0FFF79DF805462846FFF70C
:101B200051F8544890ED000A5348D0ED000A30EEC9
:101B3000200A524880ED000A90ED000A5048D0ED8E
:101B4000000A20EE200A4F4880ED000A4E48008827
:101B500000EE100AB8EE400A4948D0ED000A80EEC7
:101B6000208A102004230090464890ED000ABDEE24
:101B7000C00A10EE102A00213020FFF7A5FA10202D
:101B8000022300903D4890ED000ABDEEC00A10EE21
:101B9000102A04213020FFF797FA384890ED000A08
:101BA000DFED3A0A20EE200ABCEEC00A10EE100A61
:101BB00080B24FF47A7190FBF1F201FB1204102015
:101BC00003232246042100904820FFF77DFA1020CD
:101BD000042300902C48028802213020FFF774FA79
:101BE00010200223BDEEC80A10EE102A0621009034
:101BF0003020FFF769FA9FED250A28EE000ABCEEB7
:101C0000C00A10EE100A80B24FF47A7190FBF1F224
:101C100001FB1204102003232246062100904820D5
:101C2000FFF752FA102002232A4600210090642078
:101C3000FFF74AFAFFF7B6FA6DE700004C200140C3
:101C400038000020475F56414C3A000056414C2076
:101C5000203A0000475F56414C3A20202E20202099
:101C600056000000564F4C20203A20202E202020E5
:101C70005600000000000020040000200C0000209E
:101C800010000020080000201400002000007A440A
:101C900005E000EB80025206100E4A1ED1B2002968
:101CA000F7D1704710B50246012000E050430B1EEB
:101CB000A1F10104E1B2F9D110BD000021F0004210
:101CC000A2F16052B2F5801F01F0004328BFD2F1AB
:101CD0007F6C0BD95FEA001C43EAC20242EB5070F2
:101CE00018BF704728BF20F001007047B2F5801F71
:101CF000BCBF184670474FEA410C1CF5001F02D2CA
:101D0000084600F059BB70B500F0A2F90000008948
:101D1000FFF7F6BF4FF00040A0F5800070470000CD
:101D200010B591EA030F48BF83F0004300F1EC8146
:101D3000841A71EB030C05D2121943EB0C03001B40
:101D400061EB0C01DFF824E14FEA1154A4EB135CC2
:101D50001EEA430F18BF9EEA445F73D023EA0E03C6
:101D6000DCF1200E21EA045143F4801332D322FA2D
:101D70000CFE10EB0E0023FA0CFE41EB0E01CCF131
:101D8000200E03FA0EFE10EB0E0051F10001B1F52A
:101D9000801FCCF1200E32D201EB045112FA0EF268
:101DA000BDE8104058BF7047401C38BF5FEA420290
:101DB00018BF7047002814BF20F0010041F1000156
:101DC0004FEA410313F5001F38BF7047A1F1C0412E
:101DD00000F08CB9012A43EB0302ACF1200CDCF1DA
:101DE0001F0E32BF4FF0000E23FA0CF310EB03006E
:101DF00041EB0451B4EB115FD0D0A1EB045101F5DC
:101E0000801149085FEA300001EB04510ED350F114
:101E1000000038BF12FA0EFE08D1BDE81040C9E735
:101E2000401C38BF5FEA4202CAD1C3E7BDE8104098
:101E30004FEA410313F5001F38BF7047A1F1C041BD
:101E400000F054B99EEA445F08D011EA5E0FBDE885
:101E5000104004BF01F0004100207047BDE8104071
:101E600070B500F0F5F800BF64FBBE3E0000E0FF77
:101E70004FEA41034FEA5353A3F58063D3F11E03A6
:101E8000C8BFD3F1210C0CDD4FF0004242EAC12261
:101E900042EA505232FA03FC8CEAE17CACEBE1708E
:101EA0007047102BC4BF0020704703F5787CBCF14D
:101EB000FF3F04D06FF0004282EA2100704770B506
:101EC00000F0C6F84992248000207047F2E710F035
:101ED000004248BF4042B0FA80F310FA03F10AD042
:101EE000C3F11D0303F580634FEA415002EB035237
:101EF00002EBD12170474FF000007047DFF848C176
:101F000070B51CEA111E1EBF1CEA13159EEA0C0FC9
:101F100095EA0C0F00F06F8081EA030423EA4C136A
:101F20004EEAD47E21EA4C1141F4801143F480132F
:101F3000AE44A1FB024CA0FB0365AEF17F7E3619D7
:101F400055EB0C05A1FB034C4CF10003A0FB021C5C
:101F500016EB0C06654153F10003094218BF46F029
:101F6000010613F4007F0BD14FEA03314FEA05302D
:101F7000340341EA155140EA16506FF003020AE0BB
:101F80004FEAC3214FEAC520F40241EA555140EA25
:101F900056506FF0020202EB2E4201EB025585EA29
:101FA000CE710AD05FEA440C18BF24F0004450F10F
:101FB000000041F1000120EAD47040F2FE7C62454D
:101FC00000D270BDA84214BF4FF080444FF040448F
:101FD000002E08BF0024BEF1806FA8BFA1F1C04150
:101FE000BDE8704080F282804FF0000001F1C041F6
:101FF00001F0004170479EEA0C0F0CEA131518BF60
:1020000095EA0C0F06D04FF0000081EA030E0EF0A7
:10201000004170BD00F01CF88900013E00F007B8D7
:1020200000F009B84FEA430C5FEA5C5C08D081EA33
:10203000030100F05BB84FEA410C5FEA5C5CF6D14B
:102040004FF00000014970470000FF070000F87FD3
:102050000EF1020E2EF0030E5EF8046B364205D42C
:10206000012A43EB030515F5001F12D8012841EBA7
:10207000010C1CF5001F0CD80ED14FEAD17C15F5D0
:10208000001F0CEB4C0C0CF1020C08BF4CEBD37C8A
:1020900004E04FF0080C01E04FEAD37C0CEB4C0558
:1020A00026FA05F606F00706B6F1040C06D20EEB8A
:1020B000860CBDE870404CF0010C6047DFE80CF086
:1020C000090B02024FF000414FF00000A1F5002182
:1020D00070BD19461046012851EB010418BFD4F514
:1020E000001484BF002001F0004170BD0808A0F575
:1020F00000114FEA3101704710B591EA030F48BF54
:1021000083F000433FF514AE841A71EB030C07D241
:1021100012198CF0004C43EB0C03001B61EB0C011B
:10212000DFF8A4E14FEA1154A4EB135C1EEA430F5D
:1021300018BF9EEA445F00F0B08023EA6E0352426B
:1021400021EA0451C3EB6E0338BF5B1EDCF1200EA5
:1021500025D322FA0CFE10EB0E0043FA0CFE41EBE5
:102160000E01CCF1200E03FA0EFE10EB0E0051F121
:102170000001CCF1200E29D412FA0EF201EB045129
:10218000BDE8104058BF7047401C1CBFB2F1004F63
:10219000704700280CBF491C20F00100704712EB6B
:1021A000020E43EB030218BF4FF0010E4EEA42024B
:1021B000ACF1200CDCF11E0E54D943FA0CFE10EBEE
:1021C0000E0051F1FF31CCF11E0ED5D50EF1010EEE
:1021D00012FA0EFE404141EB010101EB445C5FEA63
:1021E0005C5C10D910EBDE7001EB045138BFBEF11E
:1021F000004FBDE8104018BF704700280CBF491CB5
:1022000020F00100704730D24FEAD42C11F50011B4
:1022100024F400641BD0B1FA81F20B3AA41AA41E74
:10222000D2F12003914030FA03F31943904001EBBF
:10223000CC71002C01EB0451BDE81040A8BF7047E1
:1022400001F1C0414FF0000001F000417047B0FAC9
:1022500080F310FA03F100D110BDE41A173C4805D1
:10226000C90AE4E701EB045110BD491001EB045128
:10227000BDE810404FEA300002E04FF00001704727
:102280004A0008BF0042F8D0B2F5001F28BF7047CF
:1022900001F000414FF0000070479EEA445F07D014
:1022A00011EA5E0FBDE8104004BF00210020704716
:1022B000BDE8104070B5FFF7CBFE00BF40DFF63E33
:1022C00083F00041104670470000E0FF43004FEAF2
:1022D000D30C4FEA3C0C43401FBF40070CF1605148
:1022E00013F0FE4F70471CF0006F03D100200CF07C
:1022F000004170470CF0004343EA507010B540EACB
:10230000CC0000F00EF800BF000000924FEA000180
:10231000FFF7ECBE4FF000414FF00000A1F50021A7
:1023200070470EF1020E2EF0030E5EF8044B2442AD
:1023300004D44FEA4102B2F17F4F11D84FEA400373
:10234000B3F17F4F0CD80ED14FEAD07CB2F17F4F62
:102350000CEB4C0C0CF1020C08BF4CEBD17C04E0F4
:102360004FF0080C01E04FEAD17C0CEB4C0324FA4F
:1023700003F404F00704B4F1040C06D20EEB840C51
:10238000BDE810404CF0010C6047DFE80CF0070896
:1023900002024FF00040A0F5800010BD0846420048
:1023A00018BFD2F1807288BF00F0004010BD4FF01E
:1023B0004070E1EE100A7047FF2141EAD050C0059D
:1023C00070470000000000000000002F0000000027
:1023D0000700070000147F147F1400242A7F2A12AC
:1023E000006264081323003649552250000005039B
:1023F000000000001C224100000041221C000014CB
:10240000083E08140008083E0808000000A060000C
:10241000000808080808000060600000002010089C
:102420000402003E5149453E0000427F4000004208
:1024300061514946002141454B31001814127F106B
:10244000002745454539003C4A494930000171099A
:10245000050300364949493600064949291E00004E
:1024600036360000000056360000000814224100F5
:102470000014141414140000412214080002015125
:10248000090600324959513E007C1211127C007F2E
:1024900049494936003E41414122007F4141221CC9
:1024A000007F49494941007F09090901003E41492E
:1024B000497A007F0808087F0000417F4100002022
:1024C00040413F01007F08142241007F40404040CE
:1024D000007F020C027F007F0408107F003E414114
:1024E000413E007F09090906003E4151215E007FFF
:1024F000091929460046494949310001017F010176
:10250000003F4040403F001F2040201F003F403818
:10251000403F006314081463000708700807006157
:102520005149454300007F41410000552A552A5535
:10253000000041417F0000040201020400404040CD
:102540004040000001020400002054545478007FF1
:102550004844443800384444442000384444487FC8
:1025600000385454541800087E0901020018A4A42D
:10257000A47C007F080404780000447D40000040F3
:1025800080847D00007F102844000000417F4000CF
:10259000007C04180478007C080404780038444463
:1025A000443800FC242424180018242418FC007C3F
:1025B0000804040800485454542000043F444020B8
:1025C000003C4040207C001C2040201C003C40304F
:1025D000403C004428102844001CA0A0A07C0044DB
:1025E00064544C441414141414140000000000002B
:1025F00000000000000000000000000000F80000E3
:102600000000000000333000000000100C06100C29
:102610000600000000000000000040C07840C078C4
:102620004000043F04043F040400007088FC0830AC
:102630000000001820FF211E0000F008F000E01844
:10264000000000211C031E211E0000F008887000FD
:1026500000001E2123241927211010160E0000004F
:1026600000000000000000000000000000E018046E
:102670000200000000071820400000020418E000DB
:1026800000000040201807000000404080F080401B
:1026900040000202010F01020200000000F00000F1
:1026A00000000101011F0101010000000000000005
:1026B000000080B07000000000000000000000007A
:1026C0000000000101010101010100000000000003
:1026D00000000030300000000000000000008060BA
:1026E0001804006018060100000000E0100808103F
:1026F000E000000F102020100F00001010F8000064
:1027000000000020203F20200000007008080888FA
:1027100070000030282422213000003008888848CA
:1027200030000018202020110E000000C02010F8FA
:10273000000000070424243F240000F808888808CB
:1027400008000019212020110E0000E010888818D0
:102750000000000F112020110E0000380808C838B2
:1027600008000000003F0000000000708808088892
:102770007000001C222121221C0000E0100808101B
:10278000E0000000312222110F00000000C0C00054
:102790000000000000303000000000000080000059
:1027A0000000000080600000000000008040201059
:1027B0000800000102040810200040404040404052
:1027C00040000404040404040400000810204080B5
:1027D00000000020100804020100007048080808EA
:1027E000F0000000003036010000C030C828E810BA
:1027F000E0000718272423140B000000C038E00075
:102800000000203C23020227382008F888888870BE
:102810000000203F202020110E00C03008080808CA
:102820003800071820202010080008F808080810B1
:10283000E000203F202020100F0008F88888E808DA
:102840001000203F20202320180008F88888E8087E
:102850001000203F200003000000C03008080838A6
:10286000000007182020221E020008F808000008B7
:10287000F808203F210101213F20000808F808083E
:1028800000000020203F2020000000000808F80879
:102890000800C08080807F00000008F888C02818E9
:1028A0000800203F20012638200008F8080000001A
:1028B0000000203F20202020300008F8F800F8F821
:1028C0000800203F003F003F200008F830C000080B
:1028D000F808203F200007183F00E0100808081003
:1028E000E0000F10202020100F0008F8080808084A
:1028F000F000203F210101010000E010080808104D
:10290000E0000F18242438504F0008F88888888881
:102910007000203F2000030C302000708808080859
:1029200038000038202121221C00180808F8080867
:1029300018000000203F2000000008F808000008F0
:10294000F808001F202020201F000878880000C8F9
:102950003808000007380E010000F80800F80008E9
:10296000F800033C0700073C0300081868808068F3
:10297000180820302C03032C30200838C800C83831
:1029800008000000203F2000000010080808C83898
:1029900008002038262120201800000000FE020236
:1029A00002000000007F40404000000C30C00000EA
:1029B0000000000000010638C00000020202FE0014
:1029C0000000004040407F000000000004020202BE
:1029D00004000000000000000000000000000000F3
:1029E00000008080808080808080000202040000DF
:1029F00000000000000000000000000080808080D7
:102A000000000019242222223F2008F800808000C4
:102A10000000003F112020110E0000000080808087
:102A20000000000E1120202011000000008080888E
:102A3000F800000E112020103F20000080808080D0
:102A40000000001F222222221300008080F08888CC
:102A500088180020203F2020000000008080808017
:102A60008000006B94949493600008F8008080804C
:102A70000000203F210000203F20008098980000A7
:102A800000000020203F20200000000000809898D7
:102A9000000000C08080807F000008F80000808077
:102AA0008000203F24022D302000000808F800009C
:102AB00000000020203F2020000080808080808057
:102AC0008000203F20003F20003F808000808080E9
:102AD0000000203F210000203F20000080808080F7
:102AE0000000001F202020201F0080800080800028
:102AF000000080FFA12020110E00000000808080D7
:102B00008000000E112020A0FF8080808000808047
:102B1000800020203F212000010000008080808074
:102B200080000033242424241900008080E0808069
:102B300000000000001F20200000808000000080B6
:102B40008000001F202020103F2080808000008017
:102B5000808000010E300806010080800080008027
:102B600080800F300C030C300F00008080008080CC
:102B700080000020312E0E312000808080000080F7
:102B8000808080818E7018060100008080808080A7
:102B900080000021302C2221300000000000807CC9
:102BA000020200000000003F404000000000FF0063
:102BB000000000000000FF0000000002027C800016
:102BC00000000040403F000000000006010102023A
:102BD000040400000000000000000000FC2B0008BE
:102BE0000000002038000000C4010008342C000858
:102BF00038000020D8060000E00100080000004175
:102C00000000000000000000000000005D74E142D0
:102C100000000000F40100000000000001020304B5
:102C2000010203040607080900000000000000007C
:042C300000000000A0
:040000050800018965
:00000001FF
